{
  "transactions": [
    {
      "hash": "0x56a2b83c94cc22755aea7985aecb1305ec5c41325e62446ad4f11c910ea4050e",
      "transactionType": "CALL",
      "contractName": null,
      "contractAddress": "0xf96c7b8930abfb7187416a3ea75b3b5f31425ca8",
      "function": "setPriceFeed(address)",
      "arguments": [
        "0x694AA1769357215DE4FAC081bf1f309aDC325306"
      ],
      "transaction": {
        "from": "0xa19ad8ced0c41d90ba86863083c02374f835dff3",
        "to": "0xf96c7b8930abfb7187416a3ea75b3b5f31425ca8",
        "gas": "0xa87e",
        "value": "0x0",
        "input": "0x724e78da000000000000000000000000694aa1769357215de4fac081bf1f309adc325306",
        "nonce": "0x45",
        "chainId": "0xaa36a7",
        "accessList": null,
        "type": null
      },
      "additionalContracts": [],
      "isFixedGasLimit": false
    }
  ],
  "receipts": [
    {
      "status": "0x1",
      "cumulativeGasUsed": "0xdbaffc",
      "logs": [],
      "logsBloom": "0x00000000000000000000000000000000000000000000000000000000000000000000000000000000000000000000000000000000000000000000000000000000000000000000000000000000000000000000000000000000000000000000000000000000000000000000000000000000000000000000000000000000000000000000000000000000000000000000000000000000000000000000000000000000000000000000000000000000000000000000000000000000000000000000000000000000000000000000000000000000000000000000000000000000000000000000000000000000000000000000000000000000000000000000000000000000",
      "type": "0x2",
      "transactionHash": "0x56a2b83c94cc22755aea7985aecb1305ec5c41325e62446ad4f11c910ea4050e",
      "transactionIndex": "0x81",
      "blockHash": "0xbdd8c7428c490e0c0332617daf9f10905720e4d643a60efc584baefeb5114153",
      "blockNumber": "0x61750a",
      "gasUsed": "0x79fd",
      "effectiveGasPrice": "0x1d84ce0b",
      "from": "0xa19ad8ced0c41d90ba86863083c02374f835dff3",
      "to": "0xf96c7b8930abfb7187416a3ea75b3b5f31425ca8",
      "contractAddress": null
    }
  ],
  "libraries": [],
  "pending": [],
  "returns": {},
  "timestamp": 1722108963,
  "chain": 11155111,
  "commit": "4bdda80"
}