{
  "transactions": [
    {
      "hash": "0x8cd268ed4efdf5c795c27ad4bb5d3d752ebda792ee0c1f8ca23c0feeb61d15b4",
      "transactionType": "CALL",
      "contractName": null,
      "contractAddress": "0x009f158dc325701b09dca908c7d459fac4bf5faa",
      "function": "transferTo(address,uint256)",
      "arguments": [
        "0xA19ad8CeD0c41D90BA86863083c02374f835Dff3",
        "100000000000000000000000"
      ],
      "transaction": {
        "from": "0xa19ad8ced0c41d90ba86863083c02374f835dff3",
        "to": "0x009f158dc325701b09dca908c7d459fac4bf5faa",
        "gas": "0x14a2e",
        "value": "0x0",
        "input": "0x2ccb1b30000000000000000000000000a19ad8ced0c41d90ba86863083c02374f835dff300000000000000000000000000000000000000000000152d02c7e14af6800000",
        "nonce": "0x50",
        "chainId": "0xaa36a7",
        "accessList": null,
        "type": null
      },
      "additionalContracts": [],
      "isFixedGasLimit": false
    }
  ],
  "receipts": [
    {
      "status": "0x1",
      "cumulativeGasUsed": "0x6ca8a5",
      "logs": [
        {
          "address": "0x009f158dc325701b09dca908c7d459fac4bf5faa",
          "topics": [
            "0xddf252ad1be2c89b69c2b068fc378daa952ba7f163c4a11628f55a4df523b3ef",
            "0x000000000000000000000000009f158dc325701b09dca908c7d459fac4bf5faa",
            "0x000000000000000000000000a19ad8ced0c41d90ba86863083c02374f835dff3"
          ],
          "data": "0x00000000000000000000000000000000000000000000152d02c7e14af6800000",
          "blockHash": "0xb440113283b6fa346296fd34b416628867e76e016fb0ef1c387661b10a33bec9",
          "blockNumber": "0x617625",
          "transactionHash": "0x8cd268ed4efdf5c795c27ad4bb5d3d752ebda792ee0c1f8ca23c0feeb61d15b4",
          "transactionIndex": "0x3a",
          "logIndex": "0x55",
          "removed": false
        }
      ],
      "logsBloom": "0x00000000000000000000000000000000000000000000000000080010100000000000000000000000000080000000000000000000000000000000000000000001000000000000000000000008000000000000000000000000000000000000000000000000000000000000000000000000000000000000000000000010000000000000010000000000000000000000000000000010000000000000000000200000000000000000000000000000000000000000000000000000000000000000000000000002000000000000000002000000000000000000000000000000000000000000000000000000000000000000000000000000000000000000000000000000",
      "type": "0x2",
      "transactionHash": "0x8cd268ed4efdf5c795c27ad4bb5d3d752ebda792ee0c1f8ca23c0feeb61d15b4",
      "transactionIndex": "0x3a",
      "blockHash": "0xb440113283b6fa346296fd34b416628867e76e016fb0ef1c387661b10a33bec9",
      "blockNumber": "0x617625",
      "gasUsed": "0xef0c",
      "effectiveGasPrice": "0x19362aa6",
      "from": "0xa19ad8ced0c41d90ba86863083c02374f835dff3",
      "to": "0x009f158dc325701b09dca908c7d459fac4bf5faa",
      "contractAddress": null
    }
  ],
  "libraries": [],
  "pending": [],
  "returns": {},
  "timestamp": 1722113007,
  "chain": 11155111,
  "commit": "4bdda80"
}