{
  "transactions": [
    {
      "hash": "0x0df389a9b9012a8ea562e5354b5e85a5e6b6544b2b2dbf2d96e5ea06e4915a69",
      "transactionType": "CALL",
      "contractName": null,
      "contractAddress": "0x3f7084563353b2588d1463a823facf8a54425570",
      "function": "unset(address)",
      "arguments": [
        "0x52f374460d02580256288a8597BB48921ba3912B"
      ],
      "transaction": {
        "from": "0xa19ad8ced0c41d90ba86863083c02374f835dff3",
        "to": "0x3f7084563353b2588d1463a823facf8a54425570",
        "gas": "0xa6c9",
        "value": "0x0",
        "input": "0x2966d1b900000000000000000000000052f374460d02580256288a8597bb48921ba3912b",
        "nonce": "0x2f",
        "chainId": "0xaa36a7",
        "accessList": null,
        "type": null
      },
      "additionalContracts": [],
      "isFixedGasLimit": false
    }
  ],
  "receipts": [
    {
      "status": "0x1",
      "cumulativeGasUsed": "0x729820",
      "logs": [],
      "logsBloom": "0x00000000000000000000000000000000000000000000000000000000000000000000000000000000000000000000000000000000000000000000000000000000000000000000000000000000000000000000000000000000000000000000000000000000000000000000000000000000000000000000000000000000000000000000000000000000000000000000000000000000000000000000000000000000000000000000000000000000000000000000000000000000000000000000000000000000000000000000000000000000000000000000000000000000000000000000000000000000000000000000000000000000000000000000000000000000",
      "type": "0x2",
      "transactionHash": "0x0df389a9b9012a8ea562e5354b5e85a5e6b6544b2b2dbf2d96e5ea06e4915a69",
      "transactionIndex": "0x45",
      "blockHash": "0x73eda8e1ed7170c055c67edceb5f9da57f08c4f90ffb81b926e916578f659bde",
      "blockNumber": "0x61501e",
      "gasUsed": "0x720b",
      "effectiveGasPrice": "0x206075e73",
      "from": "0xa19ad8ced0c41d90ba86863083c02374f835dff3",
      "to": "0x3f7084563353b2588d1463a823facf8a54425570",
      "contractAddress": null
    }
  ],
  "libraries": [],
  "pending": [],
  "returns": {},
  "timestamp": 1721972570,
  "chain": 11155111,
  "commit": "4bdda80"
}