{
  "transactions": [
    {
      "hash": "0x5ff2475cd14fe16acdd4b7c7e20108b0016001d8eae235b48ef85c04a5d1fddf",
      "transactionType": "CALL",
      "contractName": null,
      "contractAddress": "0x3f7084563353b2588d1463a823facf8a54425570",
      "function": "claim(bytes32[],address,uint256)",
      "arguments": [
        "[0xcefd908f57843d2481be377d10d67148d5334010ef59ec86de892d9b456b4241, 0x3ae57b03aa85822e428a2e69fff2c699e13a9c7ac9c261963249e1587816f150]",
        "0x52f374460d02580256288a8597BB48921ba3912B",
        "10000000000000000000"
      ],
      "transaction": {
        "from": "0xa19ad8ced0c41d90ba86863083c02374f835dff3",
        "to": "0x3f7084563353b2588d1463a823facf8a54425570",
        "gas": "0x10cfb",
        "value": "0x0",
        "input": "0xca21b177000000000000000000000000000000000000000000000000000000000000006000000000000000000000000052f374460d02580256288a8597bb48921ba3912b0000000000000000000000000000000000000000000000008ac7230489e800000000000000000000000000000000000000000000000000000000000000000002cefd908f57843d2481be377d10d67148d5334010ef59ec86de892d9b456b42413ae57b03aa85822e428a2e69fff2c699e13a9c7ac9c261963249e1587816f150",
        "nonce": "0x1b",
        "chainId": "0xaa36a7",
        "accessList": null,
        "type": null
      },
      "additionalContracts": [],
      "isFixedGasLimit": false
    }
  ],
  "receipts": [
    {
      "status": "0x1",
      "cumulativeGasUsed": "0x86c667",
      "logs": [],
      "logsBloom": "0x00000000000000000000000000000000000000000000000000000000000000000000000000000000000000000000000000000000000000000000000000000000000000000000000000000000000000000000000000000000000000000000000000000000000000000000000000000000000000000000000000000000000000000000000000000000000000000000000000000000000000000000000000000000000000000000000000000000000000000000000000000000000000000000000000000000000000000000000000000000000000000000000000000000000000000000000000000000000000000000000000000000000000000000000000000000",
      "type": "0x2",
      "transactionHash": "0x5ff2475cd14fe16acdd4b7c7e20108b0016001d8eae235b48ef85c04a5d1fddf",
      "transactionIndex": "0x45",
      "blockHash": "0x47d2a3f9f510958a3b9ad6df9b7d0a977425faf62436c6909ef33b2b493e7143",
      "blockNumber": "0x614f9b",
      "gasUsed": "0xc2be",
      "effectiveGasPrice": "0x94df4408",
      "from": "0xa19ad8ced0c41d90ba86863083c02374f835dff3",
      "to": "0x3f7084563353b2588d1463a823facf8a54425570",
      "contractAddress": null
    }
  ],
  "libraries": [],
  "pending": [],
  "returns": {},
  "timestamp": 1721970546,
  "chain": 11155111,
  "commit": "4bdda80"
}