{
  "transactions": [
    {
      "hash": "0x2fc54d9337e47fe90dd2e2190cadbe952a5c91f27a499524d3b659f570477dc8",
      "transactionType": "CALL",
      "contractName": null,
      "contractAddress": "0x3f7084563353b2588d1463a823facf8a54425570",
      "function": "claim(bytes32[],address,uint256)",
      "arguments": [
        "[0xcefd908f57843d2481be377d10d67148d5334010ef59ec86de892d9b456b4241, 0x3ae57b03aa85822e428a2e69fff2c699e13a9c7ac9c261963249e1587816f150]",
        "0x52f374460d02580256288a8597BB48921ba3912B",
        "10000000000000000000"
      ],
      "transaction": {
        "from": "0xa19ad8ced0c41d90ba86863083c02374f835dff3",
        "to": "0x3f7084563353b2588d1463a823facf8a54425570",
        "gas": "0xc29d",
        "value": "0x0",
        "input": "0xca21b177000000000000000000000000000000000000000000000000000000000000006000000000000000000000000052f374460d02580256288a8597bb48921ba3912b0000000000000000000000000000000000000000000000008ac7230489e800000000000000000000000000000000000000000000000000000000000000000002cefd908f57843d2481be377d10d67148d5334010ef59ec86de892d9b456b42413ae57b03aa85822e428a2e69fff2c699e13a9c7ac9c261963249e1587816f150",
        "nonce": "0x13",
        "chainId": "0xaa36a7",
        "accessList": null,
        "type": null
      },
      "additionalContracts": [],
      "isFixedGasLimit": false
    }
  ],
  "receipts": [
    {
      "status": "0x1",
      "cumulativeGasUsed": "0xb55dad",
      "logs": [],
      "logsBloom": "0x00000000000000000000000000000000000000000000000000000000000000000000000000000000000000000000000000000000000000000000000000000000000000000000000000000000000000000000000000000000000000000000000000000000000000000000000000000000000000000000000000000000000000000000000000000000000000000000000000000000000000000000000000000000000000000000000000000000000000000000000000000000000000000000000000000000000000000000000000000000000000000000000000000000000000000000000000000000000000000000000000000000000000000000000000000000",
      "type": "0x2",
      "transactionHash": "0x2fc54d9337e47fe90dd2e2190cadbe952a5c91f27a499524d3b659f570477dc8",
      "transactionIndex": "0x51",
      "blockHash": "0x6d3665f044d82e1e267d299392073e604a23f05de3d28488688ca9c6f6df6294",
      "blockNumber": "0x614f74",
      "gasUsed": "0x8512",
      "effectiveGasPrice": "0x925e552e",
      "from": "0xa19ad8ced0c41d90ba86863083c02374f835dff3",
      "to": "0x3f7084563353b2588d1463a823facf8a54425570",
      "contractAddress": null
    }
  ],
  "libraries": [],
  "pending": [],
  "returns": {},
  "timestamp": 1721969981,
  "chain": 11155111,
  "commit": "4bdda80"
}