{
  "transactions": [
    {
      "hash": "0xd3602a2481244fedfc88417b8b09a6b1da56e7ad2f1b29c8cbe6fd6fe35a4d07",
      "transactionType": "CALL",
      "contractName": null,
      "contractAddress": "0x3f7084563353b2588d1463a823facf8a54425570",
      "function": "unset(address)",
      "arguments": [
        "0x52f374460d02580256288a8597BB48921ba3912B"
      ],
      "transaction": {
        "from": "0xa19ad8ced0c41d90ba86863083c02374f835dff3",
        "to": "0x3f7084563353b2588d1463a823facf8a54425570",
        "gas": "0xa6c9",
        "value": "0x0",
        "input": "0x2966d1b900000000000000000000000052f374460d02580256288a8597bb48921ba3912b",
        "nonce": "0x23",
        "chainId": "0xaa36a7",
        "accessList": null,
        "type": null
      },
      "additionalContracts": [],
      "isFixedGasLimit": false
    }
  ],
  "receipts": [
    {
      "status": "0x1",
      "cumulativeGasUsed": "0xbf01d6",
      "logs": [],
      "logsBloom": "0x00000000000000000000000000000000000000000000000000000000000000000000000000000000000000000000000000000000000000000000000000000000000000000000000000000000000000000000000000000000000000000000000000000000000000000000000000000000000000000000000000000000000000000000000000000000000000000000000000000000000000000000000000000000000000000000000000000000000000000000000000000000000000000000000000000000000000000000000000000000000000000000000000000000000000000000000000000000000000000000000000000000000000000000000000000000",
      "type": "0x2",
      "transactionHash": "0xd3602a2481244fedfc88417b8b09a6b1da56e7ad2f1b29c8cbe6fd6fe35a4d07",
      "transactionIndex": "0x4f",
      "blockHash": "0x5f30f7dc75795f78607193a2745bb0762fbcb6ee707cd85bb97ad70612c91704",
      "blockNumber": "0x614fb6",
      "gasUsed": "0x720b",
      "effectiveGasPrice": "0x3505bea2f",
      "from": "0xa19ad8ced0c41d90ba86863083c02374f835dff3",
      "to": "0x3f7084563353b2588d1463a823facf8a54425570",
      "contractAddress": null
    }
  ],
  "libraries": [],
  "pending": [],
  "returns": {},
  "timestamp": 1721971119,
  "chain": 11155111,
  "commit": "4bdda80"
}