{
  "transactions": [
    {
      "hash": "0x434300a804b1d487959077969588e0486d17f1ada3ff10a1a5d53d539c4d4c10",
      "transactionType": "CALL",
      "contractName": null,
      "contractAddress": "0x3f7084563353b2588d1463a823facf8a54425570",
      "function": "claim(bytes32[],address,uint256)",
      "arguments": [
        "[0xcefd908f57843d2481be377d10d67148d5334010ef59ec86de892d9b456b4241, 0x3ae57b03aa85822e428a2e69fff2c699e13a9c7ac9c261963249e1587816f150]",
        "0x52f374460d02580256288a8597BB48921ba3912B",
        "10000000000000000000"
      ],
      "transaction": {
        "from": "0xa19ad8ced0c41d90ba86863083c02374f835dff3",
        "to": "0x3f7084563353b2588d1463a823facf8a54425570",
        "gas": "0x2d2e9",
        "value": "0x0",
        "input": "0xca21b177000000000000000000000000000000000000000000000000000000000000006000000000000000000000000052f374460d02580256288a8597bb48921ba3912b0000000000000000000000000000000000000000000000008ac7230489e800000000000000000000000000000000000000000000000000000000000000000002cefd908f57843d2481be377d10d67148d5334010ef59ec86de892d9b456b42413ae57b03aa85822e428a2e69fff2c699e13a9c7ac9c261963249e1587816f150",
        "nonce": "0x1e",
        "chainId": "0xaa36a7",
        "accessList": null,
        "type": null
      },
      "additionalContracts": [],
      "isFixedGasLimit": false
    }
  ],
  "receipts": [
    {
      "status": "0x1",
      "cumulativeGasUsed": "0x4fc89d",
      "logs": [
        {
          "address": "0xf96c7b8930abfb7187416a3ea75b3b5f31425ca8",
          "topics": [
            "0xddf252ad1be2c89b69c2b068fc378daa952ba7f163c4a11628f55a4df523b3ef",
            "0x0000000000000000000000003f7084563353b2588d1463a823facf8a54425570",
            "0x000000000000000000000000a19ad8ced0c41d90ba86863083c02374f835dff3"
          ],
          "data": "0x00000000000000000000000000000000000000000000000006f05b59d3b20000",
          "blockHash": "0xcd6117fb6adb2abb3afe5cbeda7ef3a19042040e909d205f7f6a10d76e698aac",
          "blockNumber": "0x614fa4",
          "transactionHash": "0x434300a804b1d487959077969588e0486d17f1ada3ff10a1a5d53d539c4d4c10",
          "transactionIndex": "0x25",
          "logIndex": "0x4e",
          "removed": false
        },
        {
          "address": "0xf96c7b8930abfb7187416a3ea75b3b5f31425ca8",
          "topics": [
            "0xddf252ad1be2c89b69c2b068fc378daa952ba7f163c4a11628f55a4df523b3ef",
            "0x0000000000000000000000003f7084563353b2588d1463a823facf8a54425570",
            "0x00000000000000000000000052f374460d02580256288a8597bb48921ba3912b"
          ],
          "data": "0x00000000000000000000000000000000000000000000000083d6c7aab6360000",
          "blockHash": "0xcd6117fb6adb2abb3afe5cbeda7ef3a19042040e909d205f7f6a10d76e698aac",
          "blockNumber": "0x614fa4",
          "transactionHash": "0x434300a804b1d487959077969588e0486d17f1ada3ff10a1a5d53d539c4d4c10",
          "transactionIndex": "0x25",
          "logIndex": "0x4f",
          "removed": false
        }
      ],
      "logsBloom": "0x00000000000000000000000000000000000000000000000000000000000000000000000000000000200000000000000000000000000000000000000000000000000000000000000000000008000000000000000014000000000000200000000000000000000000000000000000000000000000000000000000000010000000000000010800000000000000000000000000000010000000000000000000000000008000080000000000000000000000000000000000000000000000000000000000000002000000000000000002000000000000080000000000000000000000000000000000000000000000004000000000000000000000000000000000000000",
      "type": "0x2",
      "transactionHash": "0x434300a804b1d487959077969588e0486d17f1ada3ff10a1a5d53d539c4d4c10",
      "transactionIndex": "0x25",
      "blockHash": "0xcd6117fb6adb2abb3afe5cbeda7ef3a19042040e909d205f7f6a10d76e698aac",
      "blockNumber": "0x614fa4",
      "gasUsed": "0x20b60",
      "effectiveGasPrice": "0x11a4e2dff",
      "from": "0xa19ad8ced0c41d90ba86863083c02374f835dff3",
      "to": "0x3f7084563353b2588d1463a823facf8a54425570",
      "contractAddress": null
    }
  ],
  "libraries": [],
  "pending": [],
  "returns": {},
  "timestamp": 1721970737,
  "chain": 11155111,
  "commit": "4bdda80"
}