{
  "transactions": [
    {
      "hash": "0x12da8c27249ef9a576089c4730272f49f03cf597dd4370569579b25d3791ca4a",
      "transactionType": "CALL",
      "contractName": null,
      "contractAddress": "0x3f7084563353b2588d1463a823facf8a54425570",
      "function": "unset(address)",
      "arguments": [
        "0x52f374460d02580256288a8597BB48921ba3912B"
      ],
      "transaction": {
        "from": "0xa19ad8ced0c41d90ba86863083c02374f835dff3",
        "to": "0x3f7084563353b2588d1463a823facf8a54425570",
        "gas": "0xa6c9",
        "value": "0x0",
        "input": "0x2966d1b900000000000000000000000052f374460d02580256288a8597bb48921ba3912b",
        "nonce": "0x21",
        "chainId": "0xaa36a7",
        "accessList": null,
        "type": null
      },
      "additionalContracts": [],
      "isFixedGasLimit": false
    },
    {
      "hash": "0xc40d2bf936d8ef3910140ba366a57db7074cb0eca61a11bea0d5076c184fe1f4",
      "transactionType": "CALL",
      "contractName": null,
      "contractAddress": "0x3f7084563353b2588d1463a823facf8a54425570",
      "function": "claim(bytes32[],address,uint256)",
      "arguments": [
        "[0xcefd908f57843d2481be377d10d67148d5334010ef59ec86de892d9b456b4241, 0x3ae57b03aa85822e428a2e69fff2c699e13a9c7ac9c261963249e1587816f150]",
        "0x52f374460d02580256288a8597BB48921ba3912B",
        "10000000000000000000"
      ],
      "transaction": {
        "from": "0xa19ad8ced0c41d90ba86863083c02374f835dff3",
        "to": "0x3f7084563353b2588d1463a823facf8a54425570",
        "gas": "0x21a72",
        "value": "0x0",
        "input": "0xca21b177000000000000000000000000000000000000000000000000000000000000006000000000000000000000000052f374460d02580256288a8597bb48921ba3912b0000000000000000000000000000000000000000000000008ac7230489e800000000000000000000000000000000000000000000000000000000000000000002cefd908f57843d2481be377d10d67148d5334010ef59ec86de892d9b456b42413ae57b03aa85822e428a2e69fff2c699e13a9c7ac9c261963249e1587816f150",
        "nonce": "0x22",
        "chainId": "0xaa36a7",
        "accessList": null,
        "type": null
      },
      "additionalContracts": [],
      "isFixedGasLimit": false
    }
  ],
  "receipts": [
    {
      "status": "0x1",
      "cumulativeGasUsed": "0x162155a",
      "logs": [],
      "logsBloom": "0x00000000000000000000000000000000000000000000000000000000000000000000000000000000000000000000000000000000000000000000000000000000000000000000000000000000000000000000000000000000000000000000000000000000000000000000000000000000000000000000000000000000000000000000000000000000000000000000000000000000000000000000000000000000000000000000000000000000000000000000000000000000000000000000000000000000000000000000000000000000000000000000000000000000000000000000000000000000000000000000000000000000000000000000000000000000",
      "type": "0x2",
      "transactionHash": "0x12da8c27249ef9a576089c4730272f49f03cf597dd4370569579b25d3791ca4a",
      "transactionIndex": "0x9f",
      "blockHash": "0xd4220b1a5040b09dfa0e1b672e9fe269b48d3a119565ca01f673b053454a8cac",
      "blockNumber": "0x614fb1",
      "gasUsed": "0x720b",
      "effectiveGasPrice": "0x245ffb7ba",
      "from": "0xa19ad8ced0c41d90ba86863083c02374f835dff3",
      "to": "0x3f7084563353b2588d1463a823facf8a54425570",
      "contractAddress": null
    },
    {
      "status": "0x1",
      "cumulativeGasUsed": "0x8f60f0",
      "logs": [
        {
          "address": "0xf96c7b8930abfb7187416a3ea75b3b5f31425ca8",
          "topics": [
            "0xddf252ad1be2c89b69c2b068fc378daa952ba7f163c4a11628f55a4df523b3ef",
            "0x0000000000000000000000003f7084563353b2588d1463a823facf8a54425570",
            "0x000000000000000000000000a19ad8ced0c41d90ba86863083c02374f835dff3"
          ],
          "data": "0x00000000000000000000000000000000000000000000000006f05b59d3b20000",
          "blockHash": "0xdeafa5c3c356c64fae4f57752a2dfe4b93c09df72105399cb8a97d1de1665700",
          "blockNumber": "0x614fb2",
          "transactionHash": "0xc40d2bf936d8ef3910140ba366a57db7074cb0eca61a11bea0d5076c184fe1f4",
          "transactionIndex": "0x33",
          "logIndex": "0x8c",
          "removed": false
        },
        {
          "address": "0xf96c7b8930abfb7187416a3ea75b3b5f31425ca8",
          "topics": [
            "0xddf252ad1be2c89b69c2b068fc378daa952ba7f163c4a11628f55a4df523b3ef",
            "0x0000000000000000000000003f7084563353b2588d1463a823facf8a54425570",
            "0x00000000000000000000000052f374460d02580256288a8597bb48921ba3912b"
          ],
          "data": "0x00000000000000000000000000000000000000000000000083d6c7aab6360000",
          "blockHash": "0xdeafa5c3c356c64fae4f57752a2dfe4b93c09df72105399cb8a97d1de1665700",
          "blockNumber": "0x614fb2",
          "transactionHash": "0xc40d2bf936d8ef3910140ba366a57db7074cb0eca61a11bea0d5076c184fe1f4",
          "transactionIndex": "0x33",
          "logIndex": "0x8d",
          "removed": false
        }
      ],
      "logsBloom": "0x00000000000000000000000000000000000000000000000000000000000000000000000000000000200000000000000000000000000000000000000000000000000000000000000000000008000000000000000014000000000000200000000000000000000000000000000000000000000000000000000000000010000000000000010800000000000000000000000000000010000000000000000000000000008000080000000000000000000000000000000000000000000000000000000000000002000000000000000002000000000000080000000000000000000000000000000000000000000000004000000000000000000000000000000000000000",
      "type": "0x2",
      "transactionHash": "0xc40d2bf936d8ef3910140ba366a57db7074cb0eca61a11bea0d5076c184fe1f4",
      "transactionIndex": "0x33",
      "blockHash": "0xdeafa5c3c356c64fae4f57752a2dfe4b93c09df72105399cb8a97d1de1665700",
      "blockNumber": "0x614fb2",
      "gasUsed": "0x185d4",
      "effectiveGasPrice": "0x27ccfba1a",
      "from": "0xa19ad8ced0c41d90ba86863083c02374f835dff3",
      "to": "0x3f7084563353b2588d1463a823facf8a54425570",
      "contractAddress": null
    }
  ],
  "libraries": [],
  "pending": [],
  "returns": {},
  "timestamp": 1721971011,
  "chain": 11155111,
  "commit": "4bdda80"
}