{
  "transactions": [
    {
      "hash": "0xd80b9bfd60f641c418c60c258b1a0eae638edc6cefa1ce3bc5fbb130c65c5ac2",
      "transactionType": "CALL",
      "contractName": null,
      "contractAddress": "0xf96c7b8930abfb7187416a3ea75b3b5f31425ca8",
      "function": "mint(address,uint256)",
      "arguments": [
        "0xf96C7B8930abfB7187416A3Ea75b3b5f31425CA8",
        "100000000000000000000000000"
      ],
      "transaction": {
        "from": "0xa19ad8ced0c41d90ba86863083c02374f835dff3",
        "to": "0xf96c7b8930abfb7187416a3ea75b3b5f31425ca8",
        "gas": "0x1be88",
        "value": "0x0",
        "input": "0x40c10f19000000000000000000000000f96c7b8930abfb7187416a3ea75b3b5f31425ca800000000000000000000000000000000000000000052b7d2dcc80cd2e4000000",
        "nonce": "0x19",
        "chainId": "0xaa36a7",
        "accessList": null,
        "type": null
      },
      "additionalContracts": [],
      "isFixedGasLimit": false
    },
    {
      "hash": "0xf0a68619aa7e6584c0878bf9f0c96231ef6717324ec5a795168425ca0217a1b5",
      "transactionType": "CALL",
      "contractName": null,
      "contractAddress": "0xf96c7b8930abfb7187416a3ea75b3b5f31425ca8",
      "function": "transferTo(address,uint256)",
      "arguments": [
        "0x3F7084563353B2588D1463a823FAcF8A54425570",
        "10000000000000000000000000"
      ],
      "transaction": {
        "from": "0xa19ad8ced0c41d90ba86863083c02374f835dff3",
        "to": "0xf96c7b8930abfb7187416a3ea75b3b5f31425ca8",
        "gas": "0x14a2e",
        "value": "0x0",
        "input": "0x2ccb1b300000000000000000000000003f7084563353b2588d1463a823facf8a54425570000000000000000000000000000000000000000000084595161401484a000000",
        "nonce": "0x1a",
        "chainId": "0xaa36a7",
        "accessList": null,
        "type": null
      },
      "additionalContracts": [],
      "isFixedGasLimit": false
    }
  ],
  "receipts": [
    {
      "status": "0x1",
      "cumulativeGasUsed": "0x66d530",
      "logs": [
        {
          "address": "0xf96c7b8930abfb7187416a3ea75b3b5f31425ca8",
          "topics": [
            "0xddf252ad1be2c89b69c2b068fc378daa952ba7f163c4a11628f55a4df523b3ef",
            "0x0000000000000000000000000000000000000000000000000000000000000000",
            "0x000000000000000000000000f96c7b8930abfb7187416a3ea75b3b5f31425ca8"
          ],
          "data": "0x00000000000000000000000000000000000000000052b7d2dcc80cd2e4000000",
          "blockHash": "0xf8d7e46503094a02bea9c20d82ce40f500a73e5a6874fbe2f1e914b6b7041a62",
          "blockNumber": "0x614f93",
          "transactionHash": "0xd80b9bfd60f641c418c60c258b1a0eae638edc6cefa1ce3bc5fbb130c65c5ac2",
          "transactionIndex": "0x33",
          "logIndex": "0x76",
          "removed": false
        }
      ],
      "logsBloom": "0x00000000000000000000000000000000000000000000000080000000000040000000000000000000000000000000000000000000000000000000000000000000000000000000000000000008000000000000000010000000000000000000000000000000020000000000000000000800000000000000000000000010000000000000000800000000000000000000000000000000000000000000000000000000000000000000000000000000000000000000000000000000000000000000000000000002000000000000000000000000000000080000000000000000000020000000000800000000000000000000000000000000000000000000000000000000",
      "type": "0x2",
      "transactionHash": "0xd80b9bfd60f641c418c60c258b1a0eae638edc6cefa1ce3bc5fbb130c65c5ac2",
      "transactionIndex": "0x33",
      "blockHash": "0xf8d7e46503094a02bea9c20d82ce40f500a73e5a6874fbe2f1e914b6b7041a62",
      "blockNumber": "0x614f93",
      "gasUsed": "0x13153",
      "effectiveGasPrice": "0x8b58496f",
      "from": "0xa19ad8ced0c41d90ba86863083c02374f835dff3",
      "to": "0xf96c7b8930abfb7187416a3ea75b3b5f31425ca8",
      "contractAddress": null
    },
    {
      "status": "0x1",
      "cumulativeGasUsed": "0x67c43c",
      "logs": [
        {
          "address": "0xf96c7b8930abfb7187416a3ea75b3b5f31425ca8",
          "topics": [
            "0xddf252ad1be2c89b69c2b068fc378daa952ba7f163c4a11628f55a4df523b3ef",
            "0x000000000000000000000000f96c7b8930abfb7187416a3ea75b3b5f31425ca8",
            "0x0000000000000000000000003f7084563353b2588d1463a823facf8a54425570"
          ],
          "data": "0x000000000000000000000000000000000000000000084595161401484a000000",
          "blockHash": "0xf8d7e46503094a02bea9c20d82ce40f500a73e5a6874fbe2f1e914b6b7041a62",
          "blockNumber": "0x614f93",
          "transactionHash": "0xf0a68619aa7e6584c0878bf9f0c96231ef6717324ec5a795168425ca0217a1b5",
          "transactionIndex": "0x34",
          "logIndex": "0x77",
          "removed": false
        }
      ],
      "logsBloom": "0x00000000000000000000000000000000000000000000000080000000000040000000000000000000200000000000000000000000000000000000000000000000000000000000000000000008000000000000000010000000000000200000000000000000000000000000000000000000000000000000000000000010000000000000000800000000000000000000000000000000000000000000000000000000000000080000000000000000000000000000000000000000000000000000000000000002000000000000000000000000000000080000000000000000000000000000000800000000000000000000000000000000000000000000000000000000",
      "type": "0x2",
      "transactionHash": "0xf0a68619aa7e6584c0878bf9f0c96231ef6717324ec5a795168425ca0217a1b5",
      "transactionIndex": "0x34",
      "blockHash": "0xf8d7e46503094a02bea9c20d82ce40f500a73e5a6874fbe2f1e914b6b7041a62",
      "blockNumber": "0x614f93",
      "gasUsed": "0xef0c",
      "effectiveGasPrice": "0x8b58496f",
      "from": "0xa19ad8ced0c41d90ba86863083c02374f835dff3",
      "to": "0xf96c7b8930abfb7187416a3ea75b3b5f31425ca8",
      "contractAddress": null
    }
  ],
  "libraries": [],
  "pending": [],
  "returns": {},
  "timestamp": 1721970435,
  "chain": 11155111,
  "commit": "4bdda80"
}