{
  "transactions": [
    {
      "hash": "0x516ecdabf01d7b7c37bc5f6f9072bf8dc1fe1d50b0f30ee19acf0c88002b9bd5",
      "transactionType": "CALL",
      "contractName": null,
      "contractAddress": "0x3f7084563353b2588d1463a823facf8a54425570",
      "function": "setRoot(bytes32)",
      "arguments": [
        "0x8de9735df9f93ad8a091508497782317f023defac8d3634c642bf758b2501442"
      ],
      "transaction": {
        "from": "0xa19ad8ced0c41d90ba86863083c02374f835dff3",
        "to": "0x3f7084563353b2588d1463a823facf8a54425570",
        "gas": "0xa7d8",
        "value": "0x0",
        "input": "0xdab5f3408de9735df9f93ad8a091508497782317f023defac8d3634c642bf758b2501442",
        "nonce": "0xf",
        "chainId": "0xaa36a7",
        "accessList": null,
        "type": null
      },
      "additionalContracts": [],
      "isFixedGasLimit": false
    }
  ],
  "receipts": [
    {
      "status": "0x1",
      "cumulativeGasUsed": "0x1850c9a",
      "logs": [],
      "logsBloom": "0x00000000000000000000000000000000000000000000000000000000000000000000000000000000000000000000000000000000000000000000000000000000000000000000000000000000000000000000000000000000000000000000000000000000000000000000000000000000000000000000000000000000000000000000000000000000000000000000000000000000000000000000000000000000000000000000000000000000000000000000000000000000000000000000000000000000000000000000000000000000000000000000000000000000000000000000000000000000000000000000000000000000000000000000000000000000",
      "type": "0x2",
      "transactionHash": "0x516ecdabf01d7b7c37bc5f6f9072bf8dc1fe1d50b0f30ee19acf0c88002b9bd5",
      "transactionIndex": "0x50",
      "blockHash": "0x42158f6d491736c281393af5f0ab3c255ee3ea51cf0ebdc73fa92056823e70a0",
      "blockNumber": "0x614f58",
      "gasUsed": "0x7985",
      "effectiveGasPrice": "0x8753ae1b",
      "from": "0xa19ad8ced0c41d90ba86863083c02374f835dff3",
      "to": "0x3f7084563353b2588d1463a823facf8a54425570",
      "contractAddress": null
    }
  ],
  "libraries": [],
  "pending": [],
  "returns": {},
  "timestamp": 1721969551,
  "chain": 11155111,
  "commit": "4bdda80"
}