{
  "transactions": [
    {
      "hash": "0x6612f185f91639b2999d9c615af4c65282645d06bb79987ccef53f44aff5ae80",
      "transactionType": "CALL",
      "contractName": null,
      "contractAddress": "0x009f158dc325701b09dca908c7d459fac4bf5faa",
      "function": "mint(address,uint256)",
      "arguments": [
        "0x009F158DC325701b09dca908c7d459fac4Bf5fAa",
        "100000000000000000000000000"
      ],
      "transaction": {
        "from": "0xa19ad8ced0c41d90ba86863083c02374f835dff3",
        "to": "0x009f158dc325701b09dca908c7d459fac4bf5faa",
        "gas": "0x1a5a9",
        "value": "0x0",
        "input": "0x40c10f19000000000000000000000000009f158dc325701b09dca908c7d459fac4bf5faa00000000000000000000000000000000000000000052b7d2dcc80cd2e4000000",
        "nonce": "0x6",
        "chainId": "0xaa36a7",
        "accessList": null,
        "type": null
      },
      "additionalContracts": [],
      "isFixedGasLimit": false
    },
    {
      "hash": "0x9325774176c37b3f2457132fadf9ad6d0fa420bb4d7759c895a36a4427320f2a",
      "transactionType": "CALL",
      "contractName": null,
      "contractAddress": "0x009f158dc325701b09dca908c7d459fac4bf5faa",
      "function": "transferTo(address,uint256)",
      "arguments": [
        "0x52f374460d02580256288a8597BB48921ba3912B",
        "10000000000000000000"
      ],
      "transaction": {
        "from": "0xa19ad8ced0c41d90ba86863083c02374f835dff3",
        "to": "0x009f158dc325701b09dca908c7d459fac4bf5faa",
        "gas": "0x14a0d",
        "value": "0x0",
        "input": "0x2ccb1b3000000000000000000000000052f374460d02580256288a8597bb48921ba3912b0000000000000000000000000000000000000000000000008ac7230489e80000",
        "nonce": "0x7",
        "chainId": "0xaa36a7",
        "accessList": null,
        "type": null
      },
      "additionalContracts": [],
      "isFixedGasLimit": false
    }
  ],
  "receipts": [
    {
      "status": "0x1",
      "cumulativeGasUsed": "0x128483e",
      "logs": [
        {
          "address": "0x009f158dc325701b09dca908c7d459fac4bf5faa",
          "topics": [
            "0xddf252ad1be2c89b69c2b068fc378daa952ba7f163c4a11628f55a4df523b3ef",
            "0x0000000000000000000000000000000000000000000000000000000000000000",
            "0x000000000000000000000000009f158dc325701b09dca908c7d459fac4bf5faa"
          ],
          "data": "0x00000000000000000000000000000000000000000052b7d2dcc80cd2e4000000",
          "blockHash": "0x4da96a0df761399d1d3f49430195089e1f5dc9717ba431332597a3bb77df2abc",
          "blockNumber": "0x614e1b",
          "transactionHash": "0x6612f185f91639b2999d9c615af4c65282645d06bb79987ccef53f44aff5ae80",
          "transactionIndex": "0x3c",
          "logIndex": "0x95",
          "removed": false
        }
      ],
      "logsBloom": "0x00000000000000000000000000000000000000000000000000080010100000000000000000000000000080000000000000000000000000000000000000000001000000000000000000000008000000000000000000000000000000000000000000000000020000000000000000000800000000000000000000000010000000000000000000000000000000000000000000000000000000000000000000200000000000000000000000000000000000000000000000000000000000000000000000000002000000000000000000000000000000000000000000000000000020000000000000000000000000000000000000000000000000000000000000000000",
      "type": "0x2",
      "transactionHash": "0x6612f185f91639b2999d9c615af4c65282645d06bb79987ccef53f44aff5ae80",
      "transactionIndex": "0x3c",
      "blockHash": "0x4da96a0df761399d1d3f49430195089e1f5dc9717ba431332597a3bb77df2abc",
      "blockNumber": "0x614e1b",
      "gasUsed": "0x13147",
      "effectiveGasPrice": "0x29430974f",
      "from": "0xa19ad8ced0c41d90ba86863083c02374f835dff3",
      "to": "0x009f158dc325701b09dca908c7d459fac4bf5faa",
      "contractAddress": null
    },
    {
      "status": "0x1",
      "cumulativeGasUsed": "0x1293732",
      "logs": [
        {
          "address": "0x009f158dc325701b09dca908c7d459fac4bf5faa",
          "topics": [
            "0xddf252ad1be2c89b69c2b068fc378daa952ba7f163c4a11628f55a4df523b3ef",
            "0x000000000000000000000000009f158dc325701b09dca908c7d459fac4bf5faa",
            "0x00000000000000000000000052f374460d02580256288a8597bb48921ba3912b"
          ],
          "data": "0x0000000000000000000000000000000000000000000000008ac7230489e80000",
          "blockHash": "0x4da96a0df761399d1d3f49430195089e1f5dc9717ba431332597a3bb77df2abc",
          "blockNumber": "0x614e1b",
          "transactionHash": "0x9325774176c37b3f2457132fadf9ad6d0fa420bb4d7759c895a36a4427320f2a",
          "transactionIndex": "0x3d",
          "logIndex": "0x96",
          "removed": false
        }
      ],
      "logsBloom": "0x00000000000000000000000000000000000000000000000000080010100000000000000000000000000080000000000000000000000000000000000000000001000000000000000000000008000000000000000004000000000000000000000000000000000000000000000000000000000000000000000000000010000000000000000000000000000000000000000000000000000000000000000000200000008000000000000000000000000000000000000000000000000000000000000000000002000000000000000000000000000000000000000000000000000000000000000000000000000000004000000000000000000000000000000000000000",
      "type": "0x2",
      "transactionHash": "0x9325774176c37b3f2457132fadf9ad6d0fa420bb4d7759c895a36a4427320f2a",
      "transactionIndex": "0x3d",
      "blockHash": "0x4da96a0df761399d1d3f49430195089e1f5dc9717ba431332597a3bb77df2abc",
      "blockNumber": "0x614e1b",
      "gasUsed": "0xeef4",
      "effectiveGasPrice": "0x29430974f",
      "from": "0xa19ad8ced0c41d90ba86863083c02374f835dff3",
      "to": "0x009f158dc325701b09dca908c7d459fac4bf5faa",
      "contractAddress": null
    }
  ],
  "libraries": [],
  "pending": [],
  "returns": {},
  "timestamp": 1721964992,
  "chain": 11155111,
  "commit": "4bdda80"
}