{
  "transactions": [
    {
      "hash": "0x7e42c54c58b0ea63c9416c63dace4974a33d4ad11aeff28ccbaed6c66f737593",
      "transactionType": "CALL",
      "contractName": null,
      "contractAddress": "0x009f158dc325701b09dca908c7d459fac4bf5faa",
      "function": "transferTo(address,uint256)",
      "arguments": [
        "0x3F7084563353B2588D1463a823FAcF8A54425570",
        "10000000000000000000000000"
      ],
      "transaction": {
        "from": "0xa19ad8ced0c41d90ba86863083c02374f835dff3",
        "to": "0x009f158dc325701b09dca908c7d459fac4bf5faa",
        "gas": "0xedeb",
        "value": "0x0",
        "input": "0x2ccb1b300000000000000000000000003f7084563353b2588d1463a823facf8a54425570000000000000000000000000000000000000000000084595161401484a000000",
        "nonce": "0x9",
        "chainId": "0xaa36a7",
        "accessList": null,
        "type": null
      },
      "additionalContracts": [],
      "isFixedGasLimit": false
    }
  ],
  "receipts": [
    {
      "status": "0x1",
      "cumulativeGasUsed": "0x10ab90b",
      "logs": [
        {
          "address": "0x009f158dc325701b09dca908c7d459fac4bf5faa",
          "topics": [
            "0xddf252ad1be2c89b69c2b068fc378daa952ba7f163c4a11628f55a4df523b3ef",
            "0x000000000000000000000000009f158dc325701b09dca908c7d459fac4bf5faa",
            "0x0000000000000000000000003f7084563353b2588d1463a823facf8a54425570"
          ],
          "data": "0x000000000000000000000000000000000000000000084595161401484a000000",
          "blockHash": "0xf3bc7f62e8fb5aedfcffa911fca1c87bfa8190a7617a275a6ff4f0d1b934e462",
          "blockNumber": "0x614e84",
          "transactionHash": "0x7e42c54c58b0ea63c9416c63dace4974a33d4ad11aeff28ccbaed6c66f737593",
          "transactionIndex": "0x28",
          "logIndex": "0x65",
          "removed": false
        }
      ],
      "logsBloom": "0x00000000000000000000000000000000000000000000000000080010100000000000000000000000200080000000000000000000000000000000000000000001000000000000000000000008000000000000000000000000000000200000000000000000000000000000000000000000000000000000000000000010000000000000000000000000000000000000000000000000000000000000000000200000000000080000000000000000000000000000000000000000000000000000000000000002000000000000000000000000000000000000000000000000000000000000000000000000000000000000000000000000000000000000000000000000",
      "type": "0x2",
      "transactionHash": "0x7e42c54c58b0ea63c9416c63dace4974a33d4ad11aeff28ccbaed6c66f737593",
      "transactionIndex": "0x28",
      "blockHash": "0xf3bc7f62e8fb5aedfcffa911fca1c87bfa8190a7617a275a6ff4f0d1b934e462",
      "blockNumber": "0x614e84",
      "gasUsed": "0xac40",
      "effectiveGasPrice": "0x16111dcae",
      "from": "0xa19ad8ced0c41d90ba86863083c02374f835dff3",
      "to": "0x009f158dc325701b09dca908c7d459fac4bf5faa",
      "contractAddress": null
    }
  ],
  "libraries": [],
  "pending": [],
  "returns": {},
  "timestamp": 1721966535,
  "chain": 11155111,
  "commit": "4bdda80"
}