{
  "transactions": [
    {
      "hash": "0x26478c6a46c1ba106c7390676f6e0aaf9232b7439ea433bf7bd2e5ec01fa511c",
      "transactionType": "CALL",
      "contractName": null,
      "contractAddress": "0x009f158dc325701b09dca908c7d459fac4bf5faa",
      "function": "transferTo(address,uint256)",
      "arguments": [
        "0x3F7084563353B2588D1463a823FAcF8A54425570",
        "1000000000000000000"
      ],
      "transaction": {
        "from": "0xa19ad8ced0c41d90ba86863083c02374f835dff3",
        "to": "0x009f158dc325701b09dca908c7d459fac4bf5faa",
        "gas": "0x14a0d",
        "value": "0x0",
        "input": "0x2ccb1b300000000000000000000000003f7084563353b2588d1463a823facf8a544255700000000000000000000000000000000000000000000000000de0b6b3a7640000",
        "nonce": "0x8",
        "chainId": "0xaa36a7",
        "accessList": null,
        "type": null
      },
      "additionalContracts": [],
      "isFixedGasLimit": false
    }
  ],
  "receipts": [
    {
      "status": "0x1",
      "cumulativeGasUsed": "0x7a6465",
      "logs": [
        {
          "address": "0x009f158dc325701b09dca908c7d459fac4bf5faa",
          "topics": [
            "0xddf252ad1be2c89b69c2b068fc378daa952ba7f163c4a11628f55a4df523b3ef",
            "0x000000000000000000000000009f158dc325701b09dca908c7d459fac4bf5faa",
            "0x0000000000000000000000003f7084563353b2588d1463a823facf8a54425570"
          ],
          "data": "0x0000000000000000000000000000000000000000000000000de0b6b3a7640000",
          "blockHash": "0xbcdd76f0b190563c39333be36c79bc1dba5f4ac40dda56d572612b9ead713ac7",
          "blockNumber": "0x614e80",
          "transactionHash": "0x26478c6a46c1ba106c7390676f6e0aaf9232b7439ea433bf7bd2e5ec01fa511c",
          "transactionIndex": "0x42",
          "logIndex": "0x46",
          "removed": false
        }
      ],
      "logsBloom": "0x00000000000000000000000000000000000000000000000000080010100000000000000000000000200080000000000000000000000000000000000000000001000000000000000000000008000000000000000000000000000000200000000000000000000000000000000000000000000000000000000000000010000000000000000000000000000000000000000000000000000000000000000000200000000000080000000000000000000000000000000000000000000000000000000000000002000000000000000000000000000000000000000000000000000000000000000000000000000000000000000000000000000000000000000000000000",
      "type": "0x2",
      "transactionHash": "0x26478c6a46c1ba106c7390676f6e0aaf9232b7439ea433bf7bd2e5ec01fa511c",
      "transactionIndex": "0x42",
      "blockHash": "0xbcdd76f0b190563c39333be36c79bc1dba5f4ac40dda56d572612b9ead713ac7",
      "blockNumber": "0x614e80",
      "gasUsed": "0xeef4",
      "effectiveGasPrice": "0x130d14185",
      "from": "0xa19ad8ced0c41d90ba86863083c02374f835dff3",
      "to": "0x009f158dc325701b09dca908c7d459fac4bf5faa",
      "contractAddress": null
    }
  ],
  "libraries": [],
  "pending": [],
  "returns": {},
  "timestamp": 1721966486,
  "chain": 11155111,
  "commit": "4bdda80"
}